{
  "contractName": "Crowdsale",
  "abi": [
    {
      "inputs": [
        {
          "name": "rate",
          "type": "uint256"
        },
        {
          "name": "wallet",
          "type": "address"
        },
        {
          "name": "token",
          "type": "address"
        }
      ],
      "payable": false,
      "stateMutability": "nonpayable",
      "type": "constructor"
    },
    {
      "payable": true,
      "stateMutability": "payable",
      "type": "fallback"
    },
    {
      "anonymous": false,
      "inputs": [
        {
          "indexed": true,
          "name": "purchaser",
          "type": "address"
        },
        {
          "indexed": true,
          "name": "beneficiary",
          "type": "address"
        },
        {
          "indexed": false,
          "name": "value",
          "type": "uint256"
        },
        {
          "indexed": false,
          "name": "amount",
          "type": "uint256"
        }
      ],
      "name": "TokensPurchased",
      "type": "event"
    },
    {
      "constant": true,
      "inputs": [],
      "name": "token",
      "outputs": [
        {
          "name": "",
          "type": "address"
        }
      ],
      "payable": false,
      "stateMutability": "view",
      "type": "function"
    },
    {
      "constant": true,
      "inputs": [],
      "name": "wallet",
      "outputs": [
        {
          "name": "",
          "type": "address"
        }
      ],
      "payable": false,
      "stateMutability": "view",
      "type": "function"
    },
    {
      "constant": true,
      "inputs": [],
      "name": "rate",
      "outputs": [
        {
          "name": "",
          "type": "uint256"
        }
      ],
      "payable": false,
      "stateMutability": "view",
      "type": "function"
    },
    {
      "constant": true,
      "inputs": [],
      "name": "weiRaised",
      "outputs": [
        {
          "name": "",
          "type": "uint256"
        }
      ],
      "payable": false,
      "stateMutability": "view",
      "type": "function"
    },
    {
      "constant": false,
      "inputs": [
        {
          "name": "beneficiary",
          "type": "address"
        }
      ],
      "name": "buyTokens",
      "outputs": [],
      "payable": true,
      "stateMutability": "payable",
      "type": "function"
    }
  ],
  "bytecode": "0x608060405234801561001057600080fd5b50604051606080610d948339810180604052606081101561003057600080fd5b8101908080519060200190929190805190602001909291908051906020019092919050505060016000806101000a81548160ff0219169083151502179055506000831115156100e7576040517f08c379a00000000000000000000000000000000000000000000000000000000081526004018080602001828103825260148152602001807f43726f776473616c653a2072617465206973203000000000000000000000000081525060200191505060405180910390fd5b600073ffffffffffffffffffffffffffffffffffffffff168273ffffffffffffffffffffffffffffffffffffffff161415151561016f576040517f08c379a0000000000000000000000000000000000000000000000000000000008152600401808060200182810382526025815260200180610d6f6025913960400191505060405180910390fd5b600073ffffffffffffffffffffffffffffffffffffffff168173ffffffffffffffffffffffffffffffffffffffff16141515156101f7576040517f08c379a0000000000000000000000000000000000000000000000000000000008152600401808060200182810382526024815260200180610d4b6024913960400191505060405180910390fd5b8260028190555081600160006101000a81548173ffffffffffffffffffffffffffffffffffffffff021916908373ffffffffffffffffffffffffffffffffffffffff16021790555080600060016101000a81548173ffffffffffffffffffffffffffffffffffffffff021916908373ffffffffffffffffffffffffffffffffffffffff160217905550505050610ab9806102926000396000f3fe60806040526004361061004a5760003560e01c80632c4e722e1461005c5780634042b66f14610087578063521eb273146100b2578063ec8ac4d814610109578063fc0c546a1461014d575b61005a6100556101a4565b6101ac565b005b34801561006857600080fd5b50610071610339565b6040518082815260200191505060405180910390f35b34801561009357600080fd5b5061009c610343565b6040518082815260200191505060405180910390f35b3480156100be57600080fd5b506100c761034d565b604051808273ffffffffffffffffffffffffffffffffffffffff1673ffffffffffffffffffffffffffffffffffffffff16815260200191505060405180910390f35b61014b6004803603602081101561011f57600080fd5b81019080803573ffffffffffffffffffffffffffffffffffffffff1690602001909291905050506101ac565b005b34801561015957600080fd5b50610162610377565b604051808273ffffffffffffffffffffffffffffffffffffffff1673ffffffffffffffffffffffffffffffffffffffff16815260200191505060405180910390f35b600033905090565b6000809054906101000a900460ff16151561022f576040517f08c379a000000000000000000000000000000000000000000000000000000000815260040180806020018281038252601f8152602001807f5265656e7472616e637947756172643a207265656e7472616e742063616c6c0081525060200191505060405180910390fd5b60008060006101000a81548160ff021916908315150217905550600034905061025882826103a0565b6000610263826104a5565b905061027a826003546104c390919063ffffffff16565b60038190555061028a838261054d565b8273ffffffffffffffffffffffffffffffffffffffff166102a96101a4565b73ffffffffffffffffffffffffffffffffffffffff167f6faf93231a456e552dbc9961f58d9713ee4f2e69d15f1975b050ef0911053a7b8484604051808381526020018281526020019250505060405180910390a3610308838361055b565b61031061055f565b61031a83836105ca565b505060016000806101000a81548160ff02191690831515021790555050565b6000600254905090565b6000600354905090565b6000600160009054906101000a900473ffffffffffffffffffffffffffffffffffffffff16905090565b60008060019054906101000a900473ffffffffffffffffffffffffffffffffffffffff16905090565b600073ffffffffffffffffffffffffffffffffffffffff168273ffffffffffffffffffffffffffffffffffffffff1614151515610428576040517f08c379a000000000000000000000000000000000000000000000000000000000815260040180806020018281038252602a815260200180610a3a602a913960400191505060405180910390fd5b600081141515156104a1576040517f08c379a00000000000000000000000000000000000000000000000000000000081526004018080602001828103825260198152602001807f43726f776473616c653a20776569416d6f756e7420697320300000000000000081525060200191505060405180910390fd5b5050565b60006104bc600254836105ce90919063ffffffff16565b9050919050565b6000808284019050838110151515610543576040517f08c379a000000000000000000000000000000000000000000000000000000000815260040180806020018281038252601b8152602001807f536166654d6174683a206164646974696f6e206f766572666c6f77000000000081525060200191505060405180910390fd5b8091505092915050565b6105578282610658565b5050565b5050565b600160009054906101000a900473ffffffffffffffffffffffffffffffffffffffff1673ffffffffffffffffffffffffffffffffffffffff166108fc349081150290604051600060405180830381858888f193505050501580156105c7573d6000803e3d6000fd5b50565b5050565b6000808314156105e15760009050610652565b600082840290508284828115156105f457fe5b0414151561064d576040517f08c379a0000000000000000000000000000000000000000000000000000000008152600401808060200182810382526021815260200180610a196021913960400191505060405180910390fd5b809150505b92915050565b6106a58282600060019054906101000a900473ffffffffffffffffffffffffffffffffffffffff1673ffffffffffffffffffffffffffffffffffffffff166106a99092919063ffffffff16565b5050565b610775838473ffffffffffffffffffffffffffffffffffffffff1663a9059cbb905060e01b8484604051602401808373ffffffffffffffffffffffffffffffffffffffff1673ffffffffffffffffffffffffffffffffffffffff16815260200182815260200192505050604051602081830303815290604052907bffffffffffffffffffffffffffffffffffffffffffffffffffffffff19166020820180517bffffffffffffffffffffffffffffffffffffffffffffffffffffffff838183161783525050505061077a565b505050565b6107998273ffffffffffffffffffffffffffffffffffffffff166109cd565b151561080d576040517f08c379a000000000000000000000000000000000000000000000000000000000815260040180806020018281038252601f8152602001807f5361666545524332303a2063616c6c20746f206e6f6e2d636f6e74726163740081525060200191505060405180910390fd5b600060608373ffffffffffffffffffffffffffffffffffffffff16836040518082805190602001908083835b60208310151561085e5780518252602082019150602081019050602083039250610839565b6001836020036101000a0380198251168184511680821785525050505050509050019150506000604051808303816000865af19150503d80600081146108c0576040519150601f19603f3d011682016040523d82523d6000602084013e6108c5565b606091505b509150915081151561093f576040517f08c379a00000000000000000000000000000000000000000000000000000000081526004018080602001828103825260208152602001807f5361666545524332303a206c6f772d6c6576656c2063616c6c206661696c656481525060200191505060405180910390fd5b6000815111156109c75780806020019051602081101561095e57600080fd5b810190808051906020019092919050505015156109c6576040517f08c379a000000000000000000000000000000000000000000000000000000000815260040180806020018281038252602a815260200180610a64602a913960400191505060405180910390fd5b5b50505050565b60008060007fc5d2460186f7233c927e7db2dcc703c0e500b653ca82273b7bfad8045d85a47060001b9050833f9150808214158015610a0f57506000801b8214155b9250505091905056fe536166654d6174683a206d756c7469706c69636174696f6e206f766572666c6f7743726f776473616c653a2062656e656669636961727920697320746865207a65726f20616464726573735361666545524332303a204552433230206f7065726174696f6e20646964206e6f742073756363656564a165627a7a723058206728a523368a2265d7b6fd5fba44b122c6472154bf73d4d9ba62ac1fda4fdd4c002943726f776473616c653a20746f6b656e20697320746865207a65726f206164647265737343726f776473616c653a2077616c6c657420697320746865207a65726f2061646472657373",
  "source": "pragma solidity ^0.5.0;\n\nimport \"../GSN/Context.sol\";\nimport \"../token/ERC20/IERC20.sol\";\nimport \"../math/SafeMath.sol\";\nimport \"../token/ERC20/SafeERC20.sol\";\nimport \"../utils/ReentrancyGuard.sol\";\n\n/**\n * @title Crowdsale\n * @dev Crowdsale is a base contract for managing a token crowdsale,\n * allowing investors to purchase tokens with ether. This contract implements\n * such functionality in its most fundamental form and can be extended to provide additional\n * functionality and/or custom behavior.\n * The external interface represents the basic interface for purchasing tokens, and conforms\n * the base architecture for crowdsales. It is *not* intended to be modified / overridden.\n * The internal interface conforms the extensible and modifiable surface of crowdsales. Override\n * the methods to add functionality. Consider using 'super' where appropriate to concatenate\n * behavior.\n */\ncontract Crowdsale is Context, ReentrancyGuard {\n    using SafeMath for uint256;\n    using SafeERC20 for IERC20;\n\n    // The token being sold\n    IERC20 private _token;\n\n    // Address where funds are collected\n    address payable private _wallet;\n\n    // How many token units a buyer gets per wei.\n    // The rate is the conversion between wei and the smallest and indivisible token unit.\n    // So, if you are using a rate of 1 with a ERC20Detailed token with 3 decimals called TOK\n    // 1 wei will give you 1 unit, or 0.001 TOK.\n    uint256 private _rate;\n\n    // Amount of wei raised\n    uint256 private _weiRaised;\n\n    /**\n     * Event for token purchase logging\n     * @param purchaser who paid for the tokens\n     * @param beneficiary who got the tokens\n     * @param value weis paid for purchase\n     * @param amount amount of tokens purchased\n     */\n    event TokensPurchased(address indexed purchaser, address indexed beneficiary, uint256 value, uint256 amount);\n\n    /**\n     * @param rate Number of token units a buyer gets per wei\n     * @dev The rate is the conversion between wei and the smallest and indivisible\n     * token unit. So, if you are using a rate of 1 with a ERC20Detailed token\n     * with 3 decimals called TOK, 1 wei will give you 1 unit, or 0.001 TOK.\n     * @param wallet Address where collected funds will be forwarded to\n     * @param token Address of the token being sold\n     */\n    constructor (uint256 rate, address payable wallet, IERC20 token) public {\n        require(rate > 0, \"Crowdsale: rate is 0\");\n        require(wallet != address(0), \"Crowdsale: wallet is the zero address\");\n        require(address(token) != address(0), \"Crowdsale: token is the zero address\");\n\n        _rate = rate;\n        _wallet = wallet;\n        _token = token;\n    }\n\n    /**\n     * @dev fallback function ***DO NOT OVERRIDE***\n     * Note that other contracts will transfer funds with a base gas stipend\n     * of 2300, which is not enough to call buyTokens. Consider calling\n     * buyTokens directly when purchasing tokens from a contract.\n     */\n    function () external payable {\n        buyTokens(_msgSender());\n    }\n\n    /**\n     * @return the token being sold.\n     */\n    function token() public view returns (IERC20) {\n        return _token;\n    }\n\n    /**\n     * @return the address where funds are collected.\n     */\n    function wallet() public view returns (address payable) {\n        return _wallet;\n    }\n\n    /**\n     * @return the number of token units a buyer gets per wei.\n     */\n    function rate() public view returns (uint256) {\n        return _rate;\n    }\n\n    /**\n     * @return the amount of wei raised.\n     */\n    function weiRaised() public view returns (uint256) {\n        return _weiRaised;\n    }\n\n    /**\n     * @dev low level token purchase ***DO NOT OVERRIDE***\n     * This function has a non-reentrancy guard, so it shouldn't be called by\n     * another `nonReentrant` function.\n     * @param beneficiary Recipient of the token purchase\n     */\n    function buyTokens(address beneficiary) public nonReentrant payable {\n        uint256 weiAmount = msg.value;\n        _preValidatePurchase(beneficiary, weiAmount);\n\n        // calculate token amount to be created\n        uint256 tokens = _getTokenAmount(weiAmount);\n\n        // update state\n        _weiRaised = _weiRaised.add(weiAmount);\n\n        _processPurchase(beneficiary, tokens);\n        emit TokensPurchased(_msgSender(), beneficiary, weiAmount, tokens);\n\n        _updatePurchasingState(beneficiary, weiAmount);\n\n        _forwardFunds();\n        _postValidatePurchase(beneficiary, weiAmount);\n    }\n\n    /**\n     * @dev Validation of an incoming purchase. Use require statements to revert state when conditions are not met.\n     * Use `super` in contracts that inherit from Crowdsale to extend their validations.\n     * Example from CappedCrowdsale.sol's _preValidatePurchase method:\n     *     super._preValidatePurchase(beneficiary, weiAmount);\n     *     require(weiRaised().add(weiAmount) <= cap);\n     * @param beneficiary Address performing the token purchase\n     * @param weiAmount Value in wei involved in the purchase\n     */\n    function _preValidatePurchase(address beneficiary, uint256 weiAmount) internal view {\n        require(beneficiary != address(0), \"Crowdsale: beneficiary is the zero address\");\n        require(weiAmount != 0, \"Crowdsale: weiAmount is 0\");\n        this; // silence state mutability warning without generating bytecode - see https://github.com/ethereum/solidity/issues/2691\n    }\n\n    /**\n     * @dev Validation of an executed purchase. Observe state and use revert statements to undo rollback when valid\n     * conditions are not met.\n     * @param beneficiary Address performing the token purchase\n     * @param weiAmount Value in wei involved in the purchase\n     */\n    function _postValidatePurchase(address beneficiary, uint256 weiAmount) internal view {\n        // solhint-disable-previous-line no-empty-blocks\n    }\n\n    /**\n     * @dev Source of tokens. Override this method to modify the way in which the crowdsale ultimately gets and sends\n     * its tokens.\n     * @param beneficiary Address performing the token purchase\n     * @param tokenAmount Number of tokens to be emitted\n     */\n    function _deliverTokens(address beneficiary, uint256 tokenAmount) internal {\n        _token.safeTransfer(beneficiary, tokenAmount);\n    }\n\n    /**\n     * @dev Executed when a purchase has been validated and is ready to be executed. Doesn't necessarily emit/send\n     * tokens.\n     * @param beneficiary Address receiving the tokens\n     * @param tokenAmount Number of tokens to be purchased\n     */\n    function _processPurchase(address beneficiary, uint256 tokenAmount) internal {\n        _deliverTokens(beneficiary, tokenAmount);\n    }\n\n    /**\n     * @dev Override for extensions that require an internal state to check for validity (current user contributions,\n     * etc.)\n     * @param beneficiary Address receiving the tokens\n     * @param weiAmount Value in wei involved in the purchase\n     */\n    function _updatePurchasingState(address beneficiary, uint256 weiAmount) internal {\n        // solhint-disable-previous-line no-empty-blocks\n    }\n\n    /**\n     * @dev Override to extend the way in which ether is converted to tokens.\n     * @param weiAmount Value in wei to be converted into tokens\n     * @return Number of tokens that can be purchased with the specified _weiAmount\n     */\n    function _getTokenAmount(uint256 weiAmount) internal view returns (uint256) {\n        return weiAmount.mul(_rate);\n    }\n\n    /**\n     * @dev Determines how ETH is stored/forwarded on purchases.\n     */\n    function _forwardFunds() internal {\n        _wallet.transfer(msg.value);\n    }\n}\n",
  "sourcePath": "@openzeppelin/contracts/crowdsale/Crowdsale.sol",
  "compiler": {
    "name": "solc",
    "version": "0.5.5+commit.47a71e8f.Emscripten.clang"
  },
  "schemaVersion": "3.3.2",
  "updatedAt": "2020-12-09T09:54:47.999Z",
  "devdoc": {
    "details": "Crowdsale is a base contract for managing a token crowdsale, allowing investors to purchase tokens with ether. This contract implements such functionality in its most fundamental form and can be extended to provide additional functionality and/or custom behavior. The external interface represents the basic interface for purchasing tokens, and conforms the base architecture for crowdsales. It is *not* intended to be modified / overridden. The internal interface conforms the extensible and modifiable surface of crowdsales. Override the methods to add functionality. Consider using 'super' where appropriate to concatenate behavior.",
    "methods": {
      "buyTokens(address)": {
        "details": "low level token purchase ***DO NOT OVERRIDE*** This function has a non-reentrancy guard, so it shouldn't be called by another `nonReentrant` function.",
        "params": {
          "beneficiary": "Recipient of the token purchase"
        }
      },
      "constructor": {
        "details": "The rate is the conversion between wei and the smallest and indivisible token unit. So, if you are using a rate of 1 with a ERC20Detailed token with 3 decimals called TOK, 1 wei will give you 1 unit, or 0.001 TOK.",
        "params": {
          "rate": "Number of token units a buyer gets per wei",
          "token": "Address of the token being sold",
          "wallet": "Address where collected funds will be forwarded to"
        }
      },
      "rate()": {
        "return": "the number of token units a buyer gets per wei."
      },
      "token()": {
        "return": "the token being sold."
      },
      "wallet()": {
        "return": "the address where funds are collected."
      },
      "weiRaised()": {
        "return": "the amount of wei raised."
      }
    },
    "title": "Crowdsale"
  },
  "userdoc": {
    "methods": {}
  }
}